{"abi":[{"type":"function","name":"acceptOwnership","inputs":[],"outputs":[],"stateMutability":"nonpayable"},{"type":"function","name":"lookup","inputs":[{"name":"","type":"string","internalType":"string"}],"outputs":[{"name":"","type":"address","internalType":"address"}],"stateMutability":"view"},{"type":"function","name":"owner","inputs":[],"outputs":[{"name":"","type":"address","internalType":"address"}],"stateMutability":"view"},{"type":"function","name":"register","inputs":[{"name":"_name","type":"string","internalType":"string"},{"name":"_address","type":"address","internalType":"address"}],"outputs":[],"stateMutability":"nonpayable"},{"type":"function","name":"setCrossChainNameServiceAddress","inputs":[{"name":"crossChainNameService","type":"address","internalType":"address"}],"outputs":[],"stateMutability":"nonpayable"},{"type":"function","name":"transferOwnership","inputs":[{"name":"to","type":"address","internalType":"address"}],"outputs":[],"stateMutability":"nonpayable"},{"type":"event","name":"OwnershipTransferRequested","inputs":[{"name":"from","type":"address","indexed":true,"internalType":"address"},{"name":"to","type":"address","indexed":true,"internalType":"address"}],"anonymous":false},{"type":"event","name":"OwnershipTransferred","inputs":[{"name":"from","type":"address","indexed":true,"internalType":"address"},{"name":"to","type":"address","indexed":true,"internalType":"address"}],"anonymous":false},{"type":"event","name":"Registered","inputs":[{"name":"_name","type":"string","indexed":true,"internalType":"string"},{"name":"_address","type":"address","indexed":true,"internalType":"address"}],"anonymous":false},{"type":"error","name":"AlreadyTaken","inputs":[]},{"type":"error","name":"Unauthorized","inputs":[]}],"bytecode":{"object":"0x608060405234801561001057600080fd5b5033806000816100675760405162461bcd60e51b815260206004820152601860248201527f43616e6e6f7420736574206f776e657220746f207a65726f000000000000000060448201526064015b60405180910390fd5b600080546001600160a01b0319166001600160a01b0384811691909117909155811615610097576100978161009f565b505050610148565b336001600160a01b038216036100f75760405162461bcd60e51b815260206004820152601760248201527f43616e6e6f74207472616e7366657220746f2073656c66000000000000000000604482015260640161005e565b600180546001600160a01b0319166001600160a01b0383811691821790925560008054604051929316917fed8889f560326eb138920d842192f0eb3dd22b4f139c87a2c57538e05bae12789190a350565b610583806101576000396000f3fe608060405234801561001057600080fd5b50600436106100625760003560e01c80631e59c529146100675780636f2aba191461007c57806379ba50971461008f5780638da5cb5b14610097578063f2fde38b146100c0578063f67187ac146100d3575b600080fd5b61007a610075366004610471565b610107565b005b61007a61008a3660046104bf565b6101c7565b61007a6101f1565b6000546001600160a01b03165b6040516001600160a01b03909116815260200160405180910390f35b61007a6100ce3660046104bf565b6102a0565b6100a46100e13660046104e1565b80516020818301810180516002825292820191909301209152546001600160a01b031681565b6003546001600160a01b03163314610131576040516282b42960e81b815260040160405180910390fd5b60006001600160a01b031660028360405161014c919061051e565b908152604051908190036020019020546001600160a01b03161461018357604051630c0e5cf760e21b815260040160405180910390fd5b80600283604051610194919061051e565b90815260405190819003602001902080546001600160a01b03929092166001600160a01b03199092169190911790555050565b6101cf6102b4565b600380546001600160a01b0319166001600160a01b0392909216919091179055565b6001546001600160a01b031633146102495760405162461bcd60e51b815260206004820152601660248201527526bab9ba10313290383937b837b9b2b21037bbb732b960511b60448201526064015b60405180910390fd5b60008054336001600160a01b0319808316821784556001805490911690556040516001600160a01b0390921692909183917f8be0079c531659141344cd1fd0a4f28419497f9722a3daafe3b4186f6b6457e091a350565b6102a86102b4565b6102b181610309565b50565b6000546001600160a01b031633146103075760405162461bcd60e51b815260206004820152601660248201527527b7363c9031b0b63630b1363290313c9037bbb732b960511b6044820152606401610240565b565b336001600160a01b038216036103615760405162461bcd60e51b815260206004820152601760248201527f43616e6e6f74207472616e7366657220746f2073656c660000000000000000006044820152606401610240565b600180546001600160a01b0319166001600160a01b0383811691821790925560008054604051929316917fed8889f560326eb138920d842192f0eb3dd22b4f139c87a2c57538e05bae12789190a350565b634e487b7160e01b600052604160045260246000fd5b600082601f8301126103d957600080fd5b813567ffffffffffffffff808211156103f4576103f46103b2565b604051601f8301601f19908116603f0116810190828211818310171561041c5761041c6103b2565b8160405283815286602085880101111561043557600080fd5b836020870160208301376000602085830101528094505050505092915050565b80356001600160a01b038116811461046c57600080fd5b919050565b6000806040838503121561048457600080fd5b823567ffffffffffffffff81111561049b57600080fd5b6104a7858286016103c8565b9250506104b660208401610455565b90509250929050565b6000602082840312156104d157600080fd5b6104da82610455565b9392505050565b6000602082840312156104f357600080fd5b813567ffffffffffffffff81111561050a57600080fd5b610516848285016103c8565b949350505050565b6000825160005b8181101561053f5760208186018101518583015201610525565b50600092019182525091905056fea2646970667358221220bca79748644038134183b79563aec4f12aaac3c94a5b8ec2f2358da5ca858d3364736f6c63430008130033","linkReferences":{}},"methodIdentifiers":{"acceptOwnership()":"79ba5097","lookup(string)":"f67187ac","owner()":"8da5cb5b","register(string,address)":"1e59c529","setCrossChainNameServiceAddress(address)":"6f2aba19","transferOwnership(address)":"f2fde38b"},"id":0}